{
  "contractName": "TasksContract",
  "abi": [
    {
      "inputs": [],
      "stateMutability": "nonpayable",
      "type": "constructor"
    },
    {
      "anonymous": false,
      "inputs": [
        {
          "indexed": false,
          "internalType": "uint256",
          "name": "id",
          "type": "uint256"
        },
        {
          "indexed": false,
          "internalType": "string",
          "name": "title",
          "type": "string"
        },
        {
          "indexed": false,
          "internalType": "string",
          "name": "description",
          "type": "string"
        },
        {
          "indexed": false,
          "internalType": "bool",
          "name": "done",
          "type": "bool"
        },
        {
          "indexed": false,
          "internalType": "uint256",
          "name": "createdAt",
          "type": "uint256"
        }
      ],
      "name": "taskCreated",
      "type": "event"
    },
    {
      "anonymous": false,
      "inputs": [
        {
          "indexed": false,
          "internalType": "uint256",
          "name": "id",
          "type": "uint256"
        },
        {
          "indexed": false,
          "internalType": "bool",
          "name": "done",
          "type": "bool"
        }
      ],
      "name": "taskToogleDone",
      "type": "event"
    },
    {
      "inputs": [],
      "name": "taskCounter",
      "outputs": [
        {
          "internalType": "uint256",
          "name": "",
          "type": "uint256"
        }
      ],
      "stateMutability": "view",
      "type": "function",
      "constant": true
    },
    {
      "inputs": [
        {
          "internalType": "uint256",
          "name": "",
          "type": "uint256"
        }
      ],
      "name": "tasks",
      "outputs": [
        {
          "internalType": "uint256",
          "name": "id",
          "type": "uint256"
        },
        {
          "internalType": "string",
          "name": "title",
          "type": "string"
        },
        {
          "internalType": "string",
          "name": "description",
          "type": "string"
        },
        {
          "internalType": "bool",
          "name": "done",
          "type": "bool"
        },
        {
          "internalType": "uint256",
          "name": "createdAt",
          "type": "uint256"
        }
      ],
      "stateMutability": "view",
      "type": "function",
      "constant": true
    },
    {
      "inputs": [
        {
          "internalType": "string",
          "name": "_title",
          "type": "string"
        },
        {
          "internalType": "string",
          "name": "_description",
          "type": "string"
        }
      ],
      "name": "createTask",
      "outputs": [],
      "stateMutability": "nonpayable",
      "type": "function"
    },
    {
      "inputs": [
        {
          "internalType": "uint256",
          "name": "_id",
          "type": "uint256"
        }
      ],
      "name": "toogleDone",
      "outputs": [],
      "stateMutability": "nonpayable",
      "type": "function"
    }
  ],
  "bytecode": "0x6080604052600080553480156200001557600080fd5b50620000926040518060400160405280600c81526020017f5072696d657220546172656100000000000000000000000000000000000000008152506040518060400160405280601081526020017f546172656120646520656a656d706c6f000000000000000000000000000000008152506200009860201b60201c565b62000487565b600080815480929190620000ac9062000297565b91905055506040518060a00160405280600054815260200183815260200182815260200160001515815260200142815250600160008054815260200190815260200160002060008201518160000155602082015181600101908051906020019062000119929190620001ae565b50604082015181600201908051906020019062000138929190620001ae565b5060608201518160030160006101000a81548160ff021916908315150217905550608082015181600401559050507f12ed0d50b95419f1d6398feed57c9e03728a029e43742e25a1824deac3c2cee46000548383600042604051620001a2959493929190620003b7565b60405180910390a15050565b828054620001bc9062000451565b90600052602060002090601f016020900481019282620001e057600085556200022c565b82601f10620001fb57805160ff19168380011785556200022c565b828001600101855582156200022c579182015b828111156200022b5782518255916020019190600101906200020e565b5b5090506200023b91906200023f565b5090565b5b808211156200025a57600081600090555060010162000240565b5090565b7f4e487b7100000000000000000000000000000000000000000000000000000000600052601160045260246000fd5b6000819050919050565b6000620002a4826200028d565b91507fffffffffffffffffffffffffffffffffffffffffffffffffffffffffffffffff821415620002da57620002d96200025e565b5b600182019050919050565b620002f0816200028d565b82525050565b600081519050919050565b600082825260208201905092915050565b60005b838110156200033257808201518184015260208101905062000315565b8381111562000342576000848401525b50505050565b6000601f19601f8301169050919050565b60006200036682620002f6565b62000372818562000301565b93506200038481856020860162000312565b6200038f8162000348565b840191505092915050565b60008115159050919050565b620003b1816200039a565b82525050565b600060a082019050620003ce6000830188620002e5565b8181036020830152620003e2818762000359565b90508181036040830152620003f8818662000359565b9050620004096060830185620003a6565b620004186080830184620002e5565b9695505050505050565b7f4e487b7100000000000000000000000000000000000000000000000000000000600052602260045260246000fd5b600060028204905060018216806200046a57607f821691505b6020821081141562000481576200048062000422565b5b50919050565b610ad080620004976000396000f3fe608060405234801561001057600080fd5b506004361061004c5760003560e01c80631f3d803f14610051578063292a45851461006d57806358671730146100895780638d977672146100a7575b600080fd5b61006b6004803603810190610066919061067f565b6100db565b005b610087600480360381019061008291906107f2565b61032b565b005b610091610439565b60405161009e9190610879565b60405180910390f35b6100c160048036038101906100bc919061067f565b61043f565b6040516100d2959493929190610937565b60405180910390f35b6000600160008381526020019081526020016000206040518060a001604052908160008201548152602001600182018054610115906109c7565b80601f0160208091040260200160405190810160405280929190818152602001828054610141906109c7565b801561018e5780601f106101635761010080835404028352916020019161018e565b820191906000526020600020905b81548152906001019060200180831161017157829003601f168201915b505050505081526020016002820180546101a7906109c7565b80601f01602080910402602001604051908101604052809291908181526020018280546101d3906109c7565b80156102205780601f106101f557610100808354040283529160200191610220565b820191906000526020600020905b81548152906001019060200180831161020357829003601f168201915b505050505081526020016003820160009054906101000a900460ff161515151581526020016004820154815250509050806060015115816060019015159081151581525050806001600084815260200190815260200160002060008201518160000155602082015181600101908051906020019061029f929190610592565b5060408201518160020190805190602001906102bc929190610592565b5060608201518160030160006101000a81548160ff021916908315150217905550608082015181600401559050507fb8bcd18e2e4cb5e1d0abad9af92fc15dae6c2b1f0c4016388dacee60fa9b323482826060015160405161031f9291906109f9565b60405180910390a15050565b60008081548092919061033d90610a51565b91905055506040518060a0016040528060005481526020018381526020018281526020016000151581526020014281525060016000805481526020019081526020016000206000820151816000015560208201518160010190805190602001906103a8929190610592565b5060408201518160020190805190602001906103c5929190610592565b5060608201518160030160006101000a81548160ff021916908315150217905550608082015181600401559050507f12ed0d50b95419f1d6398feed57c9e03728a029e43742e25a1824deac3c2cee4600054838360004260405161042d959493929190610937565b60405180910390a15050565b60005481565b6001602052806000526040600020600091509050806000015490806001018054610468906109c7565b80601f0160208091040260200160405190810160405280929190818152602001828054610494906109c7565b80156104e15780601f106104b6576101008083540402835291602001916104e1565b820191906000526020600020905b8154815290600101906020018083116104c457829003601f168201915b5050505050908060020180546104f6906109c7565b80601f0160208091040260200160405190810160405280929190818152602001828054610522906109c7565b801561056f5780601f106105445761010080835404028352916020019161056f565b820191906000526020600020905b81548152906001019060200180831161055257829003601f168201915b5050505050908060030160009054906101000a900460ff16908060040154905085565b82805461059e906109c7565b90600052602060002090601f0160209004810192826105c05760008555610607565b82601f106105d957805160ff1916838001178555610607565b82800160010185558215610607579182015b828111156106065782518255916020019190600101906105eb565b5b5090506106149190610618565b5090565b5b80821115610631576000816000905550600101610619565b5090565b6000604051905090565b600080fd5b600080fd5b6000819050919050565b61065c81610649565b811461066757600080fd5b50565b60008135905061067981610653565b92915050565b6000602082840312156106955761069461063f565b5b60006106a38482850161066a565b91505092915050565b600080fd5b600080fd5b6000601f19601f8301169050919050565b7f4e487b7100000000000000000000000000000000000000000000000000000000600052604160045260246000fd5b6106ff826106b6565b810181811067ffffffffffffffff8211171561071e5761071d6106c7565b5b80604052505050565b6000610731610635565b905061073d82826106f6565b919050565b600067ffffffffffffffff82111561075d5761075c6106c7565b5b610766826106b6565b9050602081019050919050565b82818337600083830152505050565b600061079561079084610742565b610727565b9050828152602081018484840111156107b1576107b06106b1565b5b6107bc848285610773565b509392505050565b600082601f8301126107d9576107d86106ac565b5b81356107e9848260208601610782565b91505092915050565b600080604083850312156108095761080861063f565b5b600083013567ffffffffffffffff81111561082757610826610644565b5b610833858286016107c4565b925050602083013567ffffffffffffffff81111561085457610853610644565b5b610860858286016107c4565b9150509250929050565b61087381610649565b82525050565b600060208201905061088e600083018461086a565b92915050565b600081519050919050565b600082825260208201905092915050565b60005b838110156108ce5780820151818401526020810190506108b3565b838111156108dd576000848401525b50505050565b60006108ee82610894565b6108f8818561089f565b93506109088185602086016108b0565b610911816106b6565b840191505092915050565b60008115159050919050565b6109318161091c565b82525050565b600060a08201905061094c600083018861086a565b818103602083015261095e81876108e3565b9050818103604083015261097281866108e3565b90506109816060830185610928565b61098e608083018461086a565b9695505050505050565b7f4e487b7100000000000000000000000000000000000000000000000000000000600052602260045260246000fd5b600060028204905060018216806109df57607f821691505b602082108114156109f3576109f2610998565b5b50919050565b6000604082019050610a0e600083018561086a565b610a1b6020830184610928565b9392505050565b7f4e487b7100000000000000000000000000000000000000000000000000000000600052601160045260246000fd5b6000610a5c82610649565b91507fffffffffffffffffffffffffffffffffffffffffffffffffffffffffffffffff821415610a8f57610a8e610a22565b5b60018201905091905056fea2646970667358221220e83584c76301cf96c1f379dd70cd44b5a6ed99bfc6a50569cfc3c40b6a5bbd8364736f6c634300080a0033",
  "immutableReferences": {},
  "source": "// SPDX-License-Identifier: MIT\r\npragma solidity >=0.4.22 <0.9.0;\r\n\r\ncontract TasksContract { \r\n    \r\n    uint public taskCounter = 0;\r\n\r\n    constructor (){\r\n        createTask('Primer Tarea', 'Tarea de ejemplo');\r\n    }\r\n\r\n    event taskCreated (\r\n        uint id,\r\n        string title,\r\n        string description,\r\n        bool done,\r\n        uint createdAt\r\n    );\r\n    event taskToogleDone(\r\n        uint id,\r\n        bool done\r\n    );\r\n\r\n    struct Task {\r\n        uint id;\r\n        string title;\r\n        string description;\r\n        bool done;\r\n        uint createdAt;\r\n    }\r\n\r\n    mapping ( uint  => Task ) public tasks;\r\n    \r\n    function createTask (string memory _title, string memory _description) public{\r\n        taskCounter++;\r\n        tasks[taskCounter] =  Task(taskCounter, _title, _description, false, block.timestamp);\r\n         emit  taskCreated(taskCounter, _title, _description, false, block.timestamp);\r\n\r\n    }   \r\n   \r\n    function toogleDone (uint  _id) public {\r\n        Task  memory  _task = tasks[_id];\r\n        _task.done = !_task.done;\r\n        tasks[_id] = _task;\r\n        emit taskToogleDone(_id, _task.done);\r\n    }\r\n\r\n\r\n\r\n\r\n}",
  "sourcePath": "C:\\Users\\ganda\\OneDrive\\Escritorio\\Elias\\toDoList-Blockchain\\contracts\\TasksContract.sol",
  "compiler": {
    "name": "solc",
    "version": "0.8.10+commit.fc410830.Emscripten.clang"
  },
  "schemaVersion": "3.4.3",
  "updatedAt": "2021-12-21T23:22:11.395Z",
  "networkType": "ethereum",
  "devdoc": {
    "kind": "dev",
    "methods": {},
    "version": 1
  },
  "userdoc": {
    "kind": "user",
    "methods": {},
    "version": 1
  }
}